{
  "_format": "hh-sol-artifact-1",
  "contractName": "Auction",
  "sourceName": "contracts/Auction.sol",
  "abi": [
    {
      "inputs": [
        {
          "internalType": "address payable",
          "name": "_owner",
          "type": "address"
        },
        {
          "internalType": "string",
          "name": "_title",
          "type": "string"
        },
        {
          "internalType": "uint256",
          "name": "_startPrice",
          "type": "uint256"
        },
        {
          "internalType": "string",
          "name": "_description",
          "type": "string"
        },
        {
          "internalType": "string",
          "name": "_itemIpfs",
          "type": "string"
        }
      ],
      "stateMutability": "nonpayable",
      "type": "constructor"
    },
    {
      "inputs": [],
      "name": "auctionState",
      "outputs": [
        {
          "internalType": "enum Auction.State",
          "name": "",
          "type": "uint8"
        }
      ],
      "stateMutability": "view",
      "type": "function"
    },
    {
      "inputs": [
        {
          "internalType": "address",
          "name": "",
          "type": "address"
        }
      ],
      "name": "bids",
      "outputs": [
        {
          "internalType": "uint256",
          "name": "",
          "type": "uint256"
        }
      ],
      "stateMutability": "view",
      "type": "function"
    },
    {
      "inputs": [
        {
          "internalType": "uint256",
          "name": "",
          "type": "uint256"
        }
      ],
      "name": "buyer",
      "outputs": [
        {
          "internalType": "address",
          "name": "buyerAddress",
          "type": "address"
        },
        {
          "internalType": "uint256",
          "name": "price",
          "type": "uint256"
        },
        {
          "internalType": "string",
          "name": "item",
          "type": "string"
        }
      ],
      "stateMutability": "view",
      "type": "function"
    },
    {
      "inputs": [
        {
          "internalType": "address",
          "name": "_address",
          "type": "address"
        }
      ],
      "name": "checkIsUserLogged",
      "outputs": [
        {
          "internalType": "bool",
          "name": "",
          "type": "bool"
        }
      ],
      "stateMutability": "view",
      "type": "function"
    },
    {
      "inputs": [],
      "name": "finalizeAuction",
      "outputs": [],
      "stateMutability": "nonpayable",
      "type": "function"
    },
    {
      "inputs": [],
      "name": "highestBidder",
      "outputs": [
        {
          "internalType": "address payable",
          "name": "",
          "type": "address"
        }
      ],
      "stateMutability": "view",
      "type": "function"
    },
    {
      "inputs": [],
      "name": "highestPrice",
      "outputs": [
        {
          "internalType": "uint256",
          "name": "",
          "type": "uint256"
        }
      ],
      "stateMutability": "view",
      "type": "function"
    },
    {
      "inputs": [
        {
          "internalType": "address",
          "name": "_address",
          "type": "address"
        },
        {
          "internalType": "string",
          "name": "_password",
          "type": "string"
        }
      ],
      "name": "login",
      "outputs": [
        {
          "internalType": "bool",
          "name": "",
          "type": "bool"
        }
      ],
      "stateMutability": "nonpayable",
      "type": "function"
    },
    {
      "inputs": [
        {
          "internalType": "address",
          "name": "_address",
          "type": "address"
        }
      ],
      "name": "logout",
      "outputs": [],
      "stateMutability": "nonpayable",
      "type": "function"
    },
    {
      "inputs": [
        {
          "internalType": "address",
          "name": "_addr",
          "type": "address"
        }
      ],
      "name": "placeBid",
      "outputs": [
        {
          "internalType": "bool",
          "name": "",
          "type": "bool"
        }
      ],
      "stateMutability": "payable",
      "type": "function"
    },
    {
      "inputs": [
        {
          "internalType": "address",
          "name": "_address",
          "type": "address"
        },
        {
          "internalType": "string",
          "name": "_name",
          "type": "string"
        },
        {
          "internalType": "string",
          "name": "_password",
          "type": "string"
        }
      ],
      "name": "register",
      "outputs": [
        {
          "internalType": "bool",
          "name": "",
          "type": "bool"
        }
      ],
      "stateMutability": "nonpayable",
      "type": "function"
    },
    {
      "inputs": [],
      "name": "returnContents",
      "outputs": [
        {
          "internalType": "string",
          "name": "",
          "type": "string"
        },
        {
          "internalType": "uint256",
          "name": "",
          "type": "uint256"
        },
        {
          "internalType": "string",
          "name": "",
          "type": "string"
        },
        {
          "components": [
            {
              "internalType": "address",
              "name": "buyerAddress",
              "type": "address"
            },
            {
              "internalType": "uint256",
              "name": "price",
              "type": "uint256"
            },
            {
              "internalType": "string",
              "name": "item",
              "type": "string"
            }
          ],
          "internalType": "struct Auction.Buyer[]",
          "name": "",
          "type": "tuple[]"
        }
      ],
      "stateMutability": "view",
      "type": "function"
    },
    {
      "inputs": [],
      "name": "returnWinners",
      "outputs": [
        {
          "components": [
            {
              "internalType": "address",
              "name": "buyerAddress",
              "type": "address"
            },
            {
              "internalType": "uint256",
              "name": "price",
              "type": "uint256"
            },
            {
              "internalType": "string",
              "name": "item",
              "type": "string"
            }
          ],
          "internalType": "struct Auction.Buyer[]",
          "name": "",
          "type": "tuple[]"
        }
      ],
      "stateMutability": "view",
      "type": "function"
    }
  ],
  "bytecode": "0x60806040523480156200001157600080fd5b506040516200271138038062002711833981810160405281019062000037919062000321565b84600160006101000a81548173ffffffffffffffffffffffffffffffffffffffff021916908373ffffffffffffffffffffffffffffffffffffffff160217905550836002908162000089919062000647565b50826003819055508160049081620000a2919062000647565b508060059081620000b4919062000647565b506001600860006101000a81548160ff02191690836002811115620000de57620000dd6200072e565b5b021790555050505050506200075d565b6000604051905090565b600080fd5b600080fd5b600073ffffffffffffffffffffffffffffffffffffffff82169050919050565b60006200012f8262000102565b9050919050565b620001418162000122565b81146200014d57600080fd5b50565b600081519050620001618162000136565b92915050565b600080fd5b600080fd5b6000601f19601f8301169050919050565b7f4e487b7100000000000000000000000000000000000000000000000000000000600052604160045260246000fd5b620001bc8262000171565b810181811067ffffffffffffffff82111715620001de57620001dd62000182565b5b80604052505050565b6000620001f3620000ee565b9050620002018282620001b1565b919050565b600067ffffffffffffffff82111562000224576200022362000182565b5b6200022f8262000171565b9050602081019050919050565b60005b838110156200025c5780820151818401526020810190506200023f565b60008484015250505050565b60006200027f620002798462000206565b620001e7565b9050828152602081018484840111156200029e576200029d6200016c565b5b620002ab8482856200023c565b509392505050565b600082601f830112620002cb57620002ca62000167565b5b8151620002dd84826020860162000268565b91505092915050565b6000819050919050565b620002fb81620002e6565b81146200030757600080fd5b50565b6000815190506200031b81620002f0565b92915050565b600080600080600060a0868803121562000340576200033f620000f8565b5b6000620003508882890162000150565b955050602086015167ffffffffffffffff811115620003745762000373620000fd565b5b6200038288828901620002b3565b945050604062000395888289016200030a565b935050606086015167ffffffffffffffff811115620003b957620003b8620000fd565b5b620003c788828901620002b3565b925050608086015167ffffffffffffffff811115620003eb57620003ea620000fd565b5b620003f988828901620002b3565b9150509295509295909350565b600081519050919050565b7f4e487b7100000000000000000000000000000000000000000000000000000000600052602260045260246000fd5b600060028204905060018216806200045957607f821691505b6020821081036200046f576200046e62000411565b5b50919050565b60008190508160005260206000209050919050565b60006020601f8301049050919050565b600082821b905092915050565b600060088302620004d97fffffffffffffffffffffffffffffffffffffffffffffffffffffffffffffffff826200049a565b620004e586836200049a565b95508019841693508086168417925050509392505050565b6000819050919050565b600062000528620005226200051c84620002e6565b620004fd565b620002e6565b9050919050565b6000819050919050565b620005448362000507565b6200055c62000553826200052f565b848454620004a7565b825550505050565b600090565b6200057362000564565b6200058081848462000539565b505050565b5b81811015620005a8576200059c60008262000569565b60018101905062000586565b5050565b601f821115620005f757620005c18162000475565b620005cc846200048a565b81016020851015620005dc578190505b620005f4620005eb856200048a565b83018262000585565b50505b505050565b600082821c905092915050565b60006200061c60001984600802620005fc565b1980831691505092915050565b600062000637838362000609565b9150826002028217905092915050565b620006528262000406565b67ffffffffffffffff8111156200066e576200066d62000182565b5b6200067a825462000440565b62000687828285620005ac565b600060209050601f831160018114620006bf5760008415620006aa578287015190505b620006b6858262000629565b86555062000726565b601f198416620006cf8662000475565b60005b82811015620006f957848901518255600182019150602085019450602081019050620006d2565b8683101562000719578489015162000715601f89168262000609565b8355505b6001600288020188555050505b505050505050565b7f4e487b7100000000000000000000000000000000000000000000000000000000600052602160045260246000fd5b611fa4806200076d6000396000f3fe6080604052600436106100c25760003560e01c80638d59cc021161007f578063c8288dd611610059578063c8288dd6146102a9578063cc51f9b9146102d4578063e4940157146102fd578063f77282ab1461032d576100c2565b80638d59cc021461021357806391f9015714610250578063c8287b581461027b576100c2565b80630e8670e0146100c7578063297f7b39146100f25780632f19d50b1461012f5780634dd4acaf1461016c57806362ea82db146101ab5780637fb45099146101e8575b600080fd5b3480156100d357600080fd5b506100dc610344565b6040516100e9919061121e565b60405180910390f35b3480156100fe57600080fd5b50610119600480360381019061011491906112ab565b61034a565b60405161012691906112f3565b60405180910390f35b34801561013b57600080fd5b5061015660048036038101906101519190611454565b6103a2565b60405161016391906112f3565b60405180910390f35b34801561017857600080fd5b50610193600480360381019061018e91906114dc565b6104f2565b6040516101a293929190611597565b60405180910390f35b3480156101b757600080fd5b506101d260048036038101906101cd91906112ab565b6105d4565b6040516101df919061121e565b60405180910390f35b3480156101f457600080fd5b506101fd6105ec565b60405161020a919061164c565b60405180910390f35b34801561021f57600080fd5b5061023a60048036038101906102359190611667565b6105ff565b60405161024791906112f3565b60405180910390f35b34801561025c57600080fd5b5061026561081d565b6040516102729190611713565b60405180910390f35b34801561028757600080fd5b50610290610843565b6040516102a094939291906118a8565b60405180910390f35b3480156102b557600080fd5b506102be610ac4565b6040516102cb9190611902565b60405180910390f35b3480156102e057600080fd5b506102fb60048036038101906102f691906112ab565b610c15565b005b610317600480360381019061031291906112ab565b610c72565b60405161032491906112f3565b60405180910390f35b34801561033957600080fd5b50610342610e64565b005b60095481565b60008060008373ffffffffffffffffffffffffffffffffffffffff1673ffffffffffffffffffffffffffffffffffffffff16815260200190815260200160002060030160009054906101000a900460ff169050919050565b6000816040516020016103b59190611960565b604051602081830303815290604052805190602001206000808573ffffffffffffffffffffffffffffffffffffffff1673ffffffffffffffffffffffffffffffffffffffff16815260200190815260200160002060020160405160200161041c9190611a6f565b60405160208183030381529060405280519060200120036104e75760016000808573ffffffffffffffffffffffffffffffffffffffff1673ffffffffffffffffffffffffffffffffffffffff16815260200190815260200160002060030160006101000a81548160ff0219169083151502179055506000808473ffffffffffffffffffffffffffffffffffffffff1673ffffffffffffffffffffffffffffffffffffffff16815260200190815260200160002060030160009054906101000a900460ff1690506104ec565b600090505b92915050565b6007818154811061050257600080fd5b90600052602060002090600302016000915090508060000160009054906101000a900473ffffffffffffffffffffffffffffffffffffffff1690806001015490806002018054610551906119a6565b80601f016020809104026020016040519081016040528092919081815260200182805461057d906119a6565b80156105ca5780601f1061059f576101008083540402835291602001916105ca565b820191906000526020600020905b8154815290600101906020018083116105ad57829003601f168201915b5050505050905083565b600b6020528060005260406000206000915090505481565b600860009054906101000a900460ff1681565b60003373ffffffffffffffffffffffffffffffffffffffff166000808673ffffffffffffffffffffffffffffffffffffffff1673ffffffffffffffffffffffffffffffffffffffff16815260200190815260200160002060000160009054906101000a900473ffffffffffffffffffffffffffffffffffffffff1673ffffffffffffffffffffffffffffffffffffffff160361069a57600080fd5b836000808673ffffffffffffffffffffffffffffffffffffffff1673ffffffffffffffffffffffffffffffffffffffff16815260200190815260200160002060000160006101000a81548173ffffffffffffffffffffffffffffffffffffffff021916908373ffffffffffffffffffffffffffffffffffffffff160217905550826000808673ffffffffffffffffffffffffffffffffffffffff1673ffffffffffffffffffffffffffffffffffffffff16815260200190815260200160002060010190816107689190611c1d565b50816000808673ffffffffffffffffffffffffffffffffffffffff1673ffffffffffffffffffffffffffffffffffffffff16815260200190815260200160002060020190816107b79190611c1d565b5060008060008673ffffffffffffffffffffffffffffffffffffffff1673ffffffffffffffffffffffffffffffffffffffff16815260200190815260200160002060030160006101000a81548160ff021916908315150217905550600190509392505050565b600a60009054906101000a900473ffffffffffffffffffffffffffffffffffffffff1681565b6060600060608060026003546004600783805461085f906119a6565b80601f016020809104026020016040519081016040528092919081815260200182805461088b906119a6565b80156108d85780601f106108ad576101008083540402835291602001916108d8565b820191906000526020600020905b8154815290600101906020018083116108bb57829003601f168201915b505050505093508180546108eb906119a6565b80601f0160208091040260200160405190810160405280929190818152602001828054610917906119a6565b80156109645780601f1061093957610100808354040283529160200191610964565b820191906000526020600020905b81548152906001019060200180831161094757829003601f168201915b5050505050915080805480602002602001604051908101604052809291908181526020016000905b82821015610ab057838290600052602060002090600302016040518060600160405290816000820160009054906101000a900473ffffffffffffffffffffffffffffffffffffffff1673ffffffffffffffffffffffffffffffffffffffff1673ffffffffffffffffffffffffffffffffffffffff16815260200160018201548152602001600282018054610a1f906119a6565b80601f0160208091040260200160405190810160405280929190818152602001828054610a4b906119a6565b8015610a985780601f10610a6d57610100808354040283529160200191610a98565b820191906000526020600020905b815481529060010190602001808311610a7b57829003601f168201915b5050505050815250508152602001906001019061098c565b505050509050935093509350935090919293565b60606007805480602002602001604051908101604052809291908181526020016000905b82821015610c0c57838290600052602060002090600302016040518060600160405290816000820160009054906101000a900473ffffffffffffffffffffffffffffffffffffffff1673ffffffffffffffffffffffffffffffffffffffff1673ffffffffffffffffffffffffffffffffffffffff16815260200160018201548152602001600282018054610b7b906119a6565b80601f0160208091040260200160405190810160405280929190818152602001828054610ba7906119a6565b8015610bf45780601f10610bc957610100808354040283529160200191610bf4565b820191906000526020600020905b815481529060010190602001808311610bd757829003601f168201915b50505050508152505081526020019060010190610ae8565b50505050905090565b60008060008373ffffffffffffffffffffffffffffffffffffffff1673ffffffffffffffffffffffffffffffffffffffff16815260200190815260200160002060030160006101000a81548160ff02191690831515021790555050565b6000600160009054906101000a900473ffffffffffffffffffffffffffffffffffffffff1673ffffffffffffffffffffffffffffffffffffffff163373ffffffffffffffffffffffffffffffffffffffff1603610cce57600080fd5b60011515610cdb8361034a565b151514610d1d576040517f08c379a0000000000000000000000000000000000000000000000000000000008152600401610d1490611d61565b60405180910390fd5b60016002811115610d3157610d306115d5565b5b600860009054906101000a900460ff166002811115610d5357610d526115d5565b5b14610d5d57600080fd5b60003411610d6a57600080fd5b6000610dbe34600b60003373ffffffffffffffffffffffffffffffffffffffff1673ffffffffffffffffffffffffffffffffffffffff168152602001908152602001600020546111ef90919063ffffffff16565b90506009548111610dce57600080fd5b80600b60003373ffffffffffffffffffffffffffffffffffffffff1673ffffffffffffffffffffffffffffffffffffffff168152602001908152602001600020819055508060098190555033600a60006101000a81548173ffffffffffffffffffffffffffffffffffffffff021916908373ffffffffffffffffffffffffffffffffffffffff1602179055506001915050919050565b600160009054906101000a900473ffffffffffffffffffffffffffffffffffffffff1673ffffffffffffffffffffffffffffffffffffffff163373ffffffffffffffffffffffffffffffffffffffff1614610ebe57600080fd5b600080600160009054906101000a900473ffffffffffffffffffffffffffffffffffffffff1673ffffffffffffffffffffffffffffffffffffffff163373ffffffffffffffffffffffffffffffffffffffff1603610f4557600160009054906101000a900473ffffffffffffffffffffffffffffffffffffffff1691506009549050611134565b600a60009054906101000a900473ffffffffffffffffffffffffffffffffffffffff1673ffffffffffffffffffffffffffffffffffffffff163373ffffffffffffffffffffffffffffffffffffffff16036110ed57600a60009054906101000a900473ffffffffffffffffffffffffffffffffffffffff16915081600760065481548110610fd657610fd5611d81565b5b906000526020600020906003020160000160006101000a81548173ffffffffffffffffffffffffffffffffffffffff021916908373ffffffffffffffffffffffffffffffffffffffff1602179055508060076006548154811061103c5761103b611d81565b5b906000526020600020906003020160010181905550600560076006548154811061106957611068611d81565b5b906000526020600020906003020160020190816110869190611ddb565b506040518060400160405280600181526020017f3000000000000000000000000000000000000000000000000000000000000000815250600590816110cb9190611c1d565b5060009050600660008154809291906110e390611ef2565b9190505550611133565b339150600b60003373ffffffffffffffffffffffffffffffffffffffff1673ffffffffffffffffffffffffffffffffffffffff1681526020019081526020016000205490505b5b6000600b60003373ffffffffffffffffffffffffffffffffffffffff1673ffffffffffffffffffffffffffffffffffffffff168152602001908152602001600020819055508173ffffffffffffffffffffffffffffffffffffffff166108fc829081150290604051600060405180830381858888f193505050501580156111bf573d6000803e3d6000fd5b506002600860006101000a81548160ff021916908360028111156111e6576111e56115d5565b5b02179055505050565b600081836111fd9190611f3a565b905092915050565b6000819050919050565b61121881611205565b82525050565b6000602082019050611233600083018461120f565b92915050565b6000604051905090565b600080fd5b600080fd5b600073ffffffffffffffffffffffffffffffffffffffff82169050919050565b60006112788261124d565b9050919050565b6112888161126d565b811461129357600080fd5b50565b6000813590506112a58161127f565b92915050565b6000602082840312156112c1576112c0611243565b5b60006112cf84828501611296565b91505092915050565b60008115159050919050565b6112ed816112d8565b82525050565b600060208201905061130860008301846112e4565b92915050565b600080fd5b600080fd5b6000601f19601f8301169050919050565b7f4e487b7100000000000000000000000000000000000000000000000000000000600052604160045260246000fd5b61136182611318565b810181811067ffffffffffffffff821117156113805761137f611329565b5b80604052505050565b6000611393611239565b905061139f8282611358565b919050565b600067ffffffffffffffff8211156113bf576113be611329565b5b6113c882611318565b9050602081019050919050565b82818337600083830152505050565b60006113f76113f2846113a4565b611389565b90508281526020810184848401111561141357611412611313565b5b61141e8482856113d5565b509392505050565b600082601f83011261143b5761143a61130e565b5b813561144b8482602086016113e4565b91505092915050565b6000806040838503121561146b5761146a611243565b5b600061147985828601611296565b925050602083013567ffffffffffffffff81111561149a57611499611248565b5b6114a685828601611426565b9150509250929050565b6114b981611205565b81146114c457600080fd5b50565b6000813590506114d6816114b0565b92915050565b6000602082840312156114f2576114f1611243565b5b6000611500848285016114c7565b91505092915050565b6115128161126d565b82525050565b600081519050919050565b600082825260208201905092915050565b60005b83811015611552578082015181840152602081019050611537565b60008484015250505050565b600061156982611518565b6115738185611523565b9350611583818560208601611534565b61158c81611318565b840191505092915050565b60006060820190506115ac6000830186611509565b6115b9602083018561120f565b81810360408301526115cb818461155e565b9050949350505050565b7f4e487b7100000000000000000000000000000000000000000000000000000000600052602160045260246000fd5b60038110611615576116146115d5565b5b50565b600081905061162682611604565b919050565b600061163682611618565b9050919050565b6116468161162b565b82525050565b6000602082019050611661600083018461163d565b92915050565b6000806000606084860312156116805761167f611243565b5b600061168e86828701611296565b935050602084013567ffffffffffffffff8111156116af576116ae611248565b5b6116bb86828701611426565b925050604084013567ffffffffffffffff8111156116dc576116db611248565b5b6116e886828701611426565b9150509250925092565b60006116fd8261124d565b9050919050565b61170d816116f2565b82525050565b60006020820190506117286000830184611704565b92915050565b600081519050919050565b600082825260208201905092915050565b6000819050602082019050919050565b6117638161126d565b82525050565b61177281611205565b82525050565b600082825260208201905092915050565b600061179482611518565b61179e8185611778565b93506117ae818560208601611534565b6117b781611318565b840191505092915050565b60006060830160008301516117da600086018261175a565b5060208301516117ed6020860182611769565b50604083015184820360408601526118058282611789565b9150508091505092915050565b600061181e83836117c2565b905092915050565b6000602082019050919050565b600061183e8261172e565b6118488185611739565b93508360208202850161185a8561174a565b8060005b8581101561189657848403895281516118778582611812565b945061188283611826565b925060208a0199505060018101905061185e565b50829750879550505050505092915050565b600060808201905081810360008301526118c2818761155e565b90506118d1602083018661120f565b81810360408301526118e3818561155e565b905081810360608301526118f78184611833565b905095945050505050565b6000602082019050818103600083015261191c8184611833565b905092915050565b600081905092915050565b600061193a82611518565b6119448185611924565b9350611954818560208601611534565b80840191505092915050565b600061196c828461192f565b915081905092915050565b7f4e487b7100000000000000000000000000000000000000000000000000000000600052602260045260246000fd5b600060028204905060018216806119be57607f821691505b6020821081036119d1576119d0611977565b5b50919050565b60008190508160005260206000209050919050565b600081546119f9816119a6565b611a038186611924565b94506001821660008114611a1e5760018114611a3357611a66565b60ff1983168652811515820286019350611a66565b611a3c856119d7565b60005b83811015611a5e57815481890152600182019150602081019050611a3f565b838801955050505b50505092915050565b6000611a7b82846119ec565b915081905092915050565b60006020601f8301049050919050565b600082821b905092915050565b600060088302611ad37fffffffffffffffffffffffffffffffffffffffffffffffffffffffffffffffff82611a96565b611add8683611a96565b95508019841693508086168417925050509392505050565b6000819050919050565b6000611b1a611b15611b1084611205565b611af5565b611205565b9050919050565b6000819050919050565b611b3483611aff565b611b48611b4082611b21565b848454611aa3565b825550505050565b600090565b611b5d611b50565b611b68818484611b2b565b505050565b5b81811015611b8c57611b81600082611b55565b600181019050611b6e565b5050565b601f821115611bd157611ba2816119d7565b611bab84611a86565b81016020851015611bba578190505b611bce611bc685611a86565b830182611b6d565b50505b505050565b600082821c905092915050565b6000611bf460001984600802611bd6565b1980831691505092915050565b6000611c0d8383611be3565b9150826002028217905092915050565b611c2682611518565b67ffffffffffffffff811115611c3f57611c3e611329565b5b611c4982546119a6565b611c54828285611b90565b600060209050601f831160018114611c875760008415611c75578287015190505b611c7f8582611c01565b865550611ce7565b601f198416611c95866119d7565b60005b82811015611cbd57848901518255600182019150602085019450602081019050611c98565b86831015611cda5784890151611cd6601f891682611be3565b8355505b6001600288020188555050505b505050505050565b7f596f75206e65656420746f206265207369676e20696e206265666f726520626960008201527f6464696e67210000000000000000000000000000000000000000000000000000602082015250565b6000611d4b602683611523565b9150611d5682611cef565b604082019050919050565b60006020820190508181036000830152611d7a81611d3e565b9050919050565b7f4e487b7100000000000000000000000000000000000000000000000000000000600052603260045260246000fd5b600081549050611dbf816119a6565b9050919050565b60008190508160005260206000209050919050565b818103611de9575050611ec1565b611df282611db0565b67ffffffffffffffff811115611e0b57611e0a611329565b5b611e1582546119a6565b611e20828285611b90565b6000601f831160018114611e4f5760008415611e3d578287015490505b611e478582611c01565b865550611eba565b601f198416611e5d87611dc6565b9650611e68866119d7565b60005b82811015611e9057848901548255600182019150600185019450602081019050611e6b565b86831015611ead5784890154611ea9601f891682611be3565b8355505b6001600288020188555050505b5050505050505b565b7f4e487b7100000000000000000000000000000000000000000000000000000000600052601160045260246000fd5b6000611efd82611205565b91507fffffffffffffffffffffffffffffffffffffffffffffffffffffffffffffffff8203611f2f57611f2e611ec3565b5b600182019050919050565b6000611f4582611205565b9150611f5083611205565b9250828201905080821115611f6857611f67611ec3565b5b9291505056fea26469706673582212207c3629f021cf7892a7684a79a8663ee70c82b6bf74060e06dfacb013603d7d1164736f6c63430008110033",
  "linkReferences": {},
  "deployedLinkReferences": {}
}